{
  "address": "0x5FbDB2315678afecb367f032d93F642f64180aa3",
  "abi": [
    {
      "inputs": [],
      "stateMutability": "nonpayable",
      "type": "constructor"
    },
    {
      "anonymous": false,
      "inputs": [
        {
          "indexed": true,
          "internalType": "uint256",
          "name": "predictionId",
          "type": "uint256"
        },
        {
          "indexed": false,
          "internalType": "uint256",
          "name": "accuracy",
          "type": "uint256"
        }
      ],
      "name": "LeaderboardUpdated",
      "type": "event"
    },
    {
      "anonymous": false,
      "inputs": [
        {
          "indexed": true,
          "internalType": "address",
          "name": "previousOwner",
          "type": "address"
        },
        {
          "indexed": true,
          "internalType": "address",
          "name": "newOwner",
          "type": "address"
        }
      ],
      "name": "OwnershipTransferred",
      "type": "event"
    },
    {
      "anonymous": false,
      "inputs": [
        {
          "indexed": false,
          "internalType": "address",
          "name": "account",
          "type": "address"
        }
      ],
      "name": "Paused",
      "type": "event"
    },
    {
      "anonymous": false,
      "inputs": [
        {
          "indexed": true,
          "internalType": "uint256",
          "name": "predictionId",
          "type": "uint256"
        },
        {
          "indexed": true,
          "internalType": "address",
          "name": "predictor",
          "type": "address"
        },
        {
          "indexed": false,
          "internalType": "int256",
          "name": "actualTemperature",
          "type": "int256"
        },
        {
          "indexed": false,
          "internalType": "uint256",
          "name": "accuracy",
          "type": "uint256"
        }
      ],
      "name": "PredictionRevealed",
      "type": "event"
    },
    {
      "anonymous": false,
      "inputs": [
        {
          "indexed": true,
          "internalType": "uint256",
          "name": "predictionId",
          "type": "uint256"
        },
        {
          "indexed": true,
          "internalType": "address",
          "name": "predictor",
          "type": "address"
        },
        {
          "indexed": false,
          "internalType": "string",
          "name": "location",
          "type": "string"
        },
        {
          "indexed": false,
          "internalType": "uint256",
          "name": "targetDate",
          "type": "uint256"
        },
        {
          "indexed": false,
          "internalType": "uint256",
          "name": "timestamp",
          "type": "uint256"
        }
      ],
      "name": "PredictionSubmitted",
      "type": "event"
    },
    {
      "anonymous": false,
      "inputs": [
        {
          "indexed": false,
          "internalType": "address",
          "name": "account",
          "type": "address"
        }
      ],
      "name": "Unpaused",
      "type": "event"
    },
    {
      "stateMutability": "payable",
      "type": "fallback"
    },
    {
      "inputs": [],
      "name": "emergencyWithdraw",
      "outputs": [],
      "stateMutability": "nonpayable",
      "type": "function"
    },
    {
      "inputs": [],
      "name": "getContractBalance",
      "outputs": [
        {
          "internalType": "uint256",
          "name": "",
          "type": "uint256"
        }
      ],
      "stateMutability": "view",
      "type": "function"
    },
    {
      "inputs": [],
      "name": "getContractStatus",
      "outputs": [
        {
          "internalType": "bool",
          "name": "isPaused",
          "type": "bool"
        },
        {
          "internalType": "address",
          "name": "currentOwner",
          "type": "address"
        },
        {
          "internalType": "uint256",
          "name": "totalPredictions",
          "type": "uint256"
        },
        {
          "internalType": "uint256",
          "name": "contractBalance",
          "type": "uint256"
        }
      ],
      "stateMutability": "view",
      "type": "function"
    },
    {
      "inputs": [
        {
          "internalType": "uint256",
          "name": "predictionId",
          "type": "uint256"
        }
      ],
      "name": "getEncryptedConfidence",
      "outputs": [
        {
          "internalType": "euint32",
          "name": "",
          "type": "bytes32"
        }
      ],
      "stateMutability": "view",
      "type": "function"
    },
    {
      "inputs": [
        {
          "internalType": "uint256",
          "name": "predictionId",
          "type": "uint256"
        }
      ],
      "name": "getEncryptedTemperature",
      "outputs": [
        {
          "internalType": "euint32",
          "name": "",
          "type": "bytes32"
        }
      ],
      "stateMutability": "view",
      "type": "function"
    },
    {
      "inputs": [],
      "name": "getGlobalStats",
      "outputs": [
        {
          "internalType": "uint256",
          "name": "totalPredictions",
          "type": "uint256"
        },
        {
          "internalType": "uint256",
          "name": "revealedPredictions",
          "type": "uint256"
        },
        {
          "internalType": "uint256",
          "name": "averageAccuracy",
          "type": "uint256"
        }
      ],
      "stateMutability": "view",
      "type": "function"
    },
    {
      "inputs": [],
      "name": "getLeaderboardCount",
      "outputs": [
        {
          "internalType": "uint256",
          "name": "",
          "type": "uint256"
        }
      ],
      "stateMutability": "view",
      "type": "function"
    },
    {
      "inputs": [
        {
          "internalType": "uint256",
          "name": "predictionId",
          "type": "uint256"
        }
      ],
      "name": "getLeaderboardEntry",
      "outputs": [
        {
          "internalType": "address",
          "name": "predictor",
          "type": "address"
        },
        {
          "internalType": "int256",
          "name": "actualTemperature",
          "type": "int256"
        },
        {
          "internalType": "uint256",
          "name": "accuracy",
          "type": "uint256"
        }
      ],
      "stateMutability": "view",
      "type": "function"
    },
    {
      "inputs": [
        {
          "internalType": "uint256",
          "name": "predictionId",
          "type": "uint256"
        }
      ],
      "name": "getPrediction",
      "outputs": [
        {
          "internalType": "address",
          "name": "predictor",
          "type": "address"
        },
        {
          "internalType": "string",
          "name": "location",
          "type": "string"
        },
        {
          "internalType": "uint256",
          "name": "targetDate",
          "type": "uint256"
        },
        {
          "internalType": "uint256",
          "name": "submissionTime",
          "type": "uint256"
        },
        {
          "internalType": "bool",
          "name": "isRevealed",
          "type": "bool"
        },
        {
          "internalType": "bool",
          "name": "isActive",
          "type": "bool"
        }
      ],
      "stateMutability": "view",
      "type": "function"
    },
    {
      "inputs": [],
      "name": "getPredictionCount",
      "outputs": [
        {
          "internalType": "uint256",
          "name": "",
          "type": "uint256"
        }
      ],
      "stateMutability": "view",
      "type": "function"
    },
    {
      "inputs": [
        {
          "internalType": "uint256",
          "name": "predictionId",
          "type": "uint256"
        }
      ],
      "name": "getPredictionPercentile",
      "outputs": [
        {
          "internalType": "uint256",
          "name": "",
          "type": "uint256"
        }
      ],
      "stateMutability": "view",
      "type": "function"
    },
    {
      "inputs": [
        {
          "internalType": "uint256",
          "name": "predictionId",
          "type": "uint256"
        }
      ],
      "name": "getPredictionRanking",
      "outputs": [
        {
          "internalType": "uint256",
          "name": "",
          "type": "uint256"
        }
      ],
      "stateMutability": "view",
      "type": "function"
    },
    {
      "inputs": [
        {
          "internalType": "uint256",
          "name": "offset",
          "type": "uint256"
        },
        {
          "internalType": "uint256",
          "name": "limit",
          "type": "uint256"
        }
      ],
      "name": "getPredictions",
      "outputs": [
        {
          "internalType": "uint256[]",
          "name": "predictionIds",
          "type": "uint256[]"
        },
        {
          "internalType": "address[]",
          "name": "predictors",
          "type": "address[]"
        },
        {
          "internalType": "string[]",
          "name": "locations",
          "type": "string[]"
        },
        {
          "internalType": "uint256[]",
          "name": "targetDates",
          "type": "uint256[]"
        },
        {
          "internalType": "bool[]",
          "name": "isRevealedList",
          "type": "bool[]"
        },
        {
          "internalType": "bool[]",
          "name": "isActiveList",
          "type": "bool[]"
        }
      ],
      "stateMutability": "view",
      "type": "function"
    },
    {
      "inputs": [
        {
          "internalType": "uint256",
          "name": "limit",
          "type": "uint256"
        }
      ],
      "name": "getTopPredictions",
      "outputs": [
        {
          "internalType": "uint256[]",
          "name": "",
          "type": "uint256[]"
        }
      ],
      "stateMutability": "view",
      "type": "function"
    },
    {
      "inputs": [
        {
          "internalType": "address",
          "name": "user",
          "type": "address"
        },
        {
          "internalType": "uint256",
          "name": "limit",
          "type": "uint256"
        }
      ],
      "name": "getUserActivePredictions",
      "outputs": [
        {
          "internalType": "uint256[]",
          "name": "",
          "type": "uint256[]"
        }
      ],
      "stateMutability": "view",
      "type": "function"
    },
    {
      "inputs": [
        {
          "internalType": "address",
          "name": "user",
          "type": "address"
        }
      ],
      "name": "getUserPredictionCount",
      "outputs": [
        {
          "internalType": "uint256",
          "name": "",
          "type": "uint256"
        }
      ],
      "stateMutability": "view",
      "type": "function"
    },
    {
      "inputs": [
        {
          "internalType": "address",
          "name": "user",
          "type": "address"
        }
      ],
      "name": "getUserPredictions",
      "outputs": [
        {
          "internalType": "uint256[]",
          "name": "",
          "type": "uint256[]"
        }
      ],
      "stateMutability": "view",
      "type": "function"
    },
    {
      "inputs": [
        {
          "internalType": "address",
          "name": "user",
          "type": "address"
        }
      ],
      "name": "getUserStats",
      "outputs": [
        {
          "internalType": "uint256",
          "name": "totalPredictions",
          "type": "uint256"
        },
        {
          "internalType": "uint256",
          "name": "revealedPredictions",
          "type": "uint256"
        },
        {
          "internalType": "uint256",
          "name": "averageAccuracy",
          "type": "uint256"
        }
      ],
      "stateMutability": "view",
      "type": "function"
    },
    {
      "inputs": [
        {
          "internalType": "uint256",
          "name": "",
          "type": "uint256"
        }
      ],
      "name": "leaderboard",
      "outputs": [
        {
          "internalType": "address",
          "name": "predictor",
          "type": "address"
        },
        {
          "internalType": "int256",
          "name": "actualTemperature",
          "type": "int256"
        },
        {
          "internalType": "uint256",
          "name": "predictionId",
          "type": "uint256"
        },
        {
          "internalType": "uint256",
          "name": "accuracy",
          "type": "uint256"
        }
      ],
      "stateMutability": "view",
      "type": "function"
    },
    {
      "inputs": [
        {
          "internalType": "uint256",
          "name": "",
          "type": "uint256"
        }
      ],
      "name": "leaderboardIds",
      "outputs": [
        {
          "internalType": "uint256",
          "name": "",
          "type": "uint256"
        }
      ],
      "stateMutability": "view",
      "type": "function"
    },
    {
      "inputs": [],
      "name": "owner",
      "outputs": [
        {
          "internalType": "address",
          "name": "",
          "type": "address"
        }
      ],
      "stateMutability": "view",
      "type": "function"
    },
    {
      "inputs": [],
      "name": "pause",
      "outputs": [],
      "stateMutability": "nonpayable",
      "type": "function"
    },
    {
      "inputs": [],
      "name": "paused",
      "outputs": [
        {
          "internalType": "bool",
          "name": "",
          "type": "bool"
        }
      ],
      "stateMutability": "view",
      "type": "function"
    },
    {
      "inputs": [],
      "name": "predictionCount",
      "outputs": [
        {
          "internalType": "uint256",
          "name": "",
          "type": "uint256"
        }
      ],
      "stateMutability": "view",
      "type": "function"
    },
    {
      "inputs": [
        {
          "internalType": "uint256",
          "name": "",
          "type": "uint256"
        }
      ],
      "name": "predictions",
      "outputs": [
        {
          "internalType": "address",
          "name": "predictor",
          "type": "address"
        },
        {
          "internalType": "string",
          "name": "location",
          "type": "string"
        },
        {
          "internalType": "uint256",
          "name": "targetDate",
          "type": "uint256"
        },
        {
          "internalType": "uint256",
          "name": "submissionTime",
          "type": "uint256"
        },
        {
          "internalType": "bool",
          "name": "isRevealed",
          "type": "bool"
        },
        {
          "internalType": "bool",
          "name": "isActive",
          "type": "bool"
        }
      ],
      "stateMutability": "view",
      "type": "function"
    },
    {
      "inputs": [],
      "name": "protocolId",
      "outputs": [
        {
          "internalType": "uint256",
          "name": "",
          "type": "uint256"
        }
      ],
      "stateMutability": "pure",
      "type": "function"
    },
    {
      "inputs": [],
      "name": "renounceOwnership",
      "outputs": [],
      "stateMutability": "nonpayable",
      "type": "function"
    },
    {
      "inputs": [
        {
          "internalType": "uint256",
          "name": "predictionId",
          "type": "uint256"
        },
        {
          "internalType": "int256",
          "name": "actualTemperature",
          "type": "int256"
        }
      ],
      "name": "revealPrediction",
      "outputs": [],
      "stateMutability": "nonpayable",
      "type": "function"
    },
    {
      "inputs": [
        {
          "internalType": "string",
          "name": "searchLocation",
          "type": "string"
        },
        {
          "internalType": "uint256",
          "name": "limit",
          "type": "uint256"
        }
      ],
      "name": "searchPredictionsByLocation",
      "outputs": [
        {
          "internalType": "uint256[]",
          "name": "predictionIds",
          "type": "uint256[]"
        },
        {
          "internalType": "address[]",
          "name": "predictors",
          "type": "address[]"
        },
        {
          "internalType": "string[]",
          "name": "locations",
          "type": "string[]"
        }
      ],
      "stateMutability": "view",
      "type": "function"
    },
    {
      "inputs": [
        {
          "internalType": "string",
          "name": "location",
          "type": "string"
        },
        {
          "internalType": "uint256",
          "name": "targetDate",
          "type": "uint256"
        },
        {
          "internalType": "externalEuint32",
          "name": "encryptedTemperature",
          "type": "bytes32"
        },
        {
          "internalType": "bytes",
          "name": "temperatureProof",
          "type": "bytes"
        },
        {
          "internalType": "externalEuint32",
          "name": "encryptedConfidence",
          "type": "bytes32"
        },
        {
          "internalType": "bytes",
          "name": "confidenceProof",
          "type": "bytes"
        }
      ],
      "name": "submitPrediction",
      "outputs": [],
      "stateMutability": "nonpayable",
      "type": "function"
    },
    {
      "inputs": [
        {
          "internalType": "address",
          "name": "newOwner",
          "type": "address"
        }
      ],
      "name": "transferOwnership",
      "outputs": [],
      "stateMutability": "nonpayable",
      "type": "function"
    },
    {
      "inputs": [],
      "name": "unpause",
      "outputs": [],
      "stateMutability": "nonpayable",
      "type": "function"
    },
    {
      "inputs": [
        {
          "internalType": "uint256",
          "name": "predictionId",
          "type": "uint256"
        },
        {
          "internalType": "uint256",
          "name": "accuracy",
          "type": "uint256"
        }
      ],
      "name": "updateLeaderboardAccuracy",
      "outputs": [],
      "stateMutability": "nonpayable",
      "type": "function"
    },
    {
      "stateMutability": "payable",
      "type": "receive"
    }
  ],
  "transactionHash": "0xc9f2ffbf4d58232c4836a7fdc47c5e834aa2c97fd4940b244be12fde1da382c6",
  "args": [],
  "numDeployments": 1,
  "solcInputHash": "29c440c60e90985ded05a9f0fdb17298",
  "bytecode": "0x608060405234801561000f575f5ffd5b5061018a6100ae604080516080810182525f80825260208201819052918101829052606081019190915250604080516080810182527350157cffd6bbfa2dece204a89ec419c23ef5755d815273cd3ab3bd6bcc0c0bf3e27912a92043e817b1cf69602082015273a02cda4ca3a71d7c46997716f4283aa851c2881291810191909152731364cbbf2cdf5032c47d8226a6f6fbd2afcdacac606082015290565b80517f9e7b61f58c47dc699ac88507c4f5bb9f121c03808c5676a8078fe583e464970080546001600160a01b03199081166001600160a01b039384161790915560208301517f9e7b61f58c47dc699ac88507c4f5bb9f121c03808c5676a8078fe583e46497018054831691841691909117905560408301517f9e7b61f58c47dc699ac88507c4f5bb9f121c03808c5676a8078fe583e46497028054831691841691909117905560608301517f9e7b61f58c47dc699ac88507c4f5bb9f121c03808c5676a8078fe583e46497038054909216921691909117905550565b5f80546001600160a81b0319163360ff60a01b1916179055613155806101af5f395ff3fe608060405260043610610200575f3560e01c8063715018a61161011c578063a674ebc0116100af578063c285f8531161007e578063db2e21bc11610063578063db2e21bc146106dd578063f2fde38b146106f1578063fe83bece1461071057610207565b8063c285f853146106aa578063da1f12ab146106c957610207565b8063a674ebc0146105bf578063bf368399146105de578063c032846b14610652578063c086bf291461069657610207565b80638da5cb5b116100eb5780638da5cb5b146105245780638e0596a21461055a5780639bec02b11461056f5780639eecccf1146105a057610207565b8063715018a6146104a957806377c05e8e146104bd5780638456cb59146104f157806387ca9d6b1461050557610207565b80633f4ba83a11610194578063658232ad11610163578063658232ad14610445578063661026c9146104645780636b4169c3146104835780636f9fb98a1461049757610207565b80633f4ba83a146103a7578063491a8827146103bd5780634e43603a146103dc5780635c975abb1461041657610207565b806321e4759a116101d057806321e4759a146102f9578063242bb9fc1461031857806330c8bc7c1461035c5780633c56af3a1461038857610207565b80624fbbb014610254578063016680961461028e5780630f7af6b6146102ac5780631d8729aa146102cb57610207565b3661020757005b60405162461bcd60e51b815260206004820152601260248201527f46756e6374696f6e206e6f7420666f756e64000000000000000000000000000060448201526064015b60405180910390fd5b34801561025f575f5ffd5b5061027361026e366004612a1b565b61072f565b60405161028596959493929190612a60565b60405180910390f35b348015610299575f5ffd5b506003545b604051908152602001610285565b3480156102b7575f5ffd5b5061029e6102c6366004612a1b565b6107fc565b3480156102d6575f5ffd5b506102ea6102e5366004612b47565b610919565b60405161028593929190612c56565b348015610304575f5ffd5b5061029e610313366004612a1b565b610c8c565b348015610323575f5ffd5b50610337610332366004612a1b565b610d3c565b604080516001600160a01b039094168452602084019290925290820152606001610285565b348015610367575f5ffd5b5061037b610376366004612a1b565b610dc7565b6040516102859190612c8e565b348015610393575f5ffd5b5061029e6103a2366004612a1b565b610e7a565b3480156103b2575f5ffd5b506103bb610f2d565b005b3480156103c8575f5ffd5b506103bb6103d7366004612ca0565b611020565b3480156103e7575f5ffd5b506103fb6103f6366004612cdb565b6111e2565b60408051938452602084019290925290820152606001610285565b348015610421575f5ffd5b505f5461043590600160a01b900460ff1681565b6040519015158152602001610285565b348015610450575f5ffd5b5061029e61045f366004612a1b565b6112f6565b34801561046f575f5ffd5b5061029e61047e366004612a1b565b611416565b34801561048e575f5ffd5b506103fb611435565b3480156104a2575f5ffd5b504761029e565b3480156104b4575f5ffd5b506103bb6114dc565b3480156104c8575f5ffd5b5061029e6104d7366004612cdb565b6001600160a01b03165f9081526005602052604090205490565b3480156104fc575f5ffd5b506103bb61157d565b348015610510575f5ffd5b5061037b61051f366004612cf4565b611666565b34801561052f575f5ffd5b505f54610542906001600160a01b031681565b6040516001600160a01b039091168152602001610285565b348015610565575f5ffd5b5061029e60035481565b34801561057a575f5ffd5b5061058e610589366004612ca0565b611830565b60405161028596959493929190612d4e565b3480156105ab575f5ffd5b506103bb6105ba366004612ca0565b611be7565b3480156105ca575f5ffd5b506103bb6105d9366004612e14565b611ead565b3480156105e9575f5ffd5b506106286105f8366004612a1b565b60066020525f908152604090208054600182015460028301546003909301546001600160a01b0390921692909184565b604080516001600160a01b0390951685526020850193909352918301526060820152608001610285565b34801561065d575f5ffd5b505f5460035460408051600160a01b840460ff16151581526001600160a01b039093166020840152820152476060820152608001610285565b3480156106a1575f5ffd5b5060075461029e565b3480156106b5575f5ffd5b5061037b6106c4366004612cdb565b61226c565b3480156106d4575f5ffd5b5061271161029e565b3480156106e8575f5ffd5b506103bb6122d5565b3480156106fc575f5ffd5b506103bb61070b366004612cdb565b6123c0565b34801561071b575f5ffd5b5061027361072a366004612a1b565b6124c8565b600160208190525f9182526040909120805491810180546001600160a01b039093169261075b90612ec9565b80601f016020809104026020016040519081016040528092919081815260200182805461078790612ec9565b80156107d25780601f106107a9576101008083540402835291602001916107d2565b820191905f5260205f20905b8154815290600101906020018083116107b557829003601f168201915b50505050600283015460038401546004909401549293909290915060ff8082169161010090041686565b5f81815260016020526040812060040154610100900460ff166108615760405162461bcd60e51b815260206004820152601960248201527f50726564696374696f6e20646f6573206e6f7420657869737400000000000000604482015260640161024b565b5f828152600160205260409020546001600160a01b031633148061089557505f8281526001602052604090206004015460ff165b6109075760405162461bcd60e51b815260206004820152603d60248201527f4f6e6c792070726564696374696f6e206f776e65722063616e2061636365737360448201527f20656e637279707465642064617461206265666f72652072657665616c000000606482015260840161024b565b505f9081526002602052604090205490565b60608060605f5f90505f60035467ffffffffffffffff81111561093e5761093e612aa8565b604051908082528060200260200182016040528015610967578160200160208202803683370190505b5090505f5b600354811015610a5e575f818152600160208190526040822001805461099190612ec9565b80601f01602080910402602001604051908101604052809291908181526020018280546109bd90612ec9565b8015610a085780601f106109df57610100808354040283529160200191610a08565b820191905f5260205f20905b8154815290600101906020018083116109eb57829003601f168201915b50505050509050610a19818a6125b7565b8015610a2457508784105b15610a555781838581518110610a3c57610a3c612f01565b602090810291909101015283610a5181612f29565b9450505b5060010161096c565b508167ffffffffffffffff811115610a7857610a78612aa8565b604051908082528060200260200182016040528015610aa1578160200160208202803683370190505b5094508167ffffffffffffffff811115610abd57610abd612aa8565b604051908082528060200260200182016040528015610ae6578160200160208202803683370190505b5093508167ffffffffffffffff811115610b0257610b02612aa8565b604051908082528060200260200182016040528015610b3557816020015b6060815260200190600190039081610b205790505b5092505f5b82811015610c82575f828281518110610b5557610b55612f01565b6020026020010151905080878381518110610b7257610b72612f01565b6020908102919091018101919091525f8281526001909152604090205486516001600160a01b0390911690879084908110610baf57610baf612f01565b6001600160a01b039092166020928302919091018201525f82815260019182905260409020018054610be090612ec9565b80601f0160208091040260200160405190810160405280929190818152602001828054610c0c90612ec9565b8015610c575780601f10610c2e57610100808354040283529160200191610c57565b820191905f5260205f20905b815481529060010190602001808311610c3a57829003601f168201915b5050505050858381518110610c6e57610c6e612f01565b602090810291909101015250600101610b3a565b5050509250925092565b5f8181526001602052604081206004015460ff16610cec5760405162461bcd60e51b815260206004820152601b60248201527f50726564696374696f6e206d7573742062652072657665616c65640000000000604482015260640161024b565b5f5b600754811015610d34578260078281548110610d0c57610d0c612f01565b905f5260205f20015403610d2c57610d25816001612f41565b9392505050565b600101610cee565b505f92915050565b5f8181526006602052604081208054829182916001600160a01b0316610da45760405162461bcd60e51b815260206004820181905260248201527f4c6561646572626f61726420656e74727920646f6573206e6f74206578697374604482015260640161024b565b805460018201546003909201546001600160a01b03909116969195509350915050565b6007546060905f908311610ddb5782610ddf565b6007545b90505f8167ffffffffffffffff811115610dfb57610dfb612aa8565b604051908082528060200260200182016040528015610e24578160200160208202803683370190505b5090505f5b82811015610e725760078181548110610e4457610e44612f01565b905f5260205f200154828281518110610e5f57610e5f612f01565b6020908102919091010152600101610e29565b509392505050565b5f8181526001602052604081206004015460ff16610eda5760405162461bcd60e51b815260206004820152601b60248201527f50726564696374696f6e206d7573742062652072657665616c65640000000000604482015260640161024b565b5f610ee483610c8c565b9050801580610ef35750600754155b15610f0057505f92915050565b600754610f0d8282612f54565b610f18906001612f41565b610f23906064612f67565b610d259190612f7e565b5f546001600160a01b03163314610f865760405162461bcd60e51b815260206004820181905260248201527f4f776e61626c653a2063616c6c6572206973206e6f7420746865206f776e6572604482015260640161024b565b5f54600160a01b900460ff16610fde5760405162461bcd60e51b815260206004820152601660248201527f436f6e7472616374206973206e6f742070617573656400000000000000000000604482015260640161024b565b5f805460ff60a01b191690556040513381527f5db9ee0a495bf2e6ff9c91a7834c1ba4fdd244a5e8aa4e537bd38aeae4b073aa906020015b60405180910390a1565b5f546001600160a01b031633146110795760405162461bcd60e51b815260206004820181905260248201527f4f776e61626c653a2063616c6c6572206973206e6f7420746865206f776e6572604482015260640161024b565b5f54600160a01b900460ff16156110c75760405162461bcd60e51b815260206004820152601260248201527110dbdb9d1c9858dd081a5cc81c185d5cd95960721b604482015260640161024b565b5f8281526001602052604090206004015460ff166111315760405162461bcd60e51b815260206004820152602160248201527f50726564696374696f6e206d7573742062652072657665616c656420666972736044820152601d60fa1b606482015260840161024b565b61271081111561118f5760405162461bcd60e51b8152602060048201526024808201527f4163637572616379206d757374206265206265747765656e203020616e6420316044820152630303030360e41b606482015260840161024b565b5f82815260066020526040908190206003018290555182907f2e5ac4384ad62e3cf18c8aba01ff1c95b4a369b92626f4791b534e2685816c50906111d69084815260200190565b60405180910390a25050565b6001600160a01b0381165f90815260046020908152604080832080548251818502810185019093528083528493849384939092909183018282801561124457602002820191905f5260205f20905b815481526020019060010190808311611230575b5050835197509293505f92508291508190505b83518110156112d1575f84828151811061127357611273612f01565b6020908102919091018101515f818152600190925260409091206004015490915060ff16156112c857836112a681612f29565b5f838152600660205260409020600301549095506112c5915084612f41565b92505b50600101611257565b505f82116112df575f6112e9565b6112e98282612f7e565b9597919650909350505050565b5f81815260016020526040812060040154610100900460ff1661135b5760405162461bcd60e51b815260206004820152601960248201527f50726564696374696f6e20646f6573206e6f7420657869737400000000000000604482015260640161024b565b5f828152600160205260409020546001600160a01b031633148061138f57505f8281526001602052604090206004015460ff165b6114015760405162461bcd60e51b815260206004820152603d60248201527f4f6e6c792070726564696374696f6e206f776e65722063616e2061636365737360448201527f20656e637279707465642064617461206265666f72652072657665616c000000606482015260840161024b565b505f9081526002602052604090206001015490565b60078181548110611425575f80fd5b5f91825260209091200154905081565b6003545f808080805b6007548110156114b8575f6007828154811061145c5761145c612f01565b905f5260205f20015490505f60065f8381526020019081526020015f206003015411156114af578361148d81612f29565b5f838152600660205260409020600301549095506114ac915084612f41565b92505b5060010161143e565b505f82116114c6575f6114d0565b6114d08282612f7e565b92508193505050909192565b5f546001600160a01b031633146115355760405162461bcd60e51b815260206004820181905260248201527f4f776e61626c653a2063616c6c6572206973206e6f7420746865206f776e6572604482015260640161024b565b5f80546040516001600160a01b03909116907f8be0079c531659141344cd1fd0a4f28419497f9722a3daafe3b4186f6b6457e0908390a35f80546001600160a01b0319169055565b5f546001600160a01b031633146115d65760405162461bcd60e51b815260206004820181905260248201527f4f776e61626c653a2063616c6c6572206973206e6f7420746865206f776e6572604482015260640161024b565b5f54600160a01b900460ff16156116245760405162461bcd60e51b815260206004820152601260248201527110dbdb9d1c9858dd081a5cc81c185d5cd95960721b604482015260640161024b565b5f805460ff60a01b1916600160a01b1790556040513381527f62e78cea01bee320cd4e420270b5ea74000d11b0c9f74754ebdbfc544b05a25890602001611016565b6001600160a01b0382165f9081526004602090815260408083208054825181850281018501909352808352606094938301828280156116c257602002820191905f5260205f20905b8154815260200190600101908083116116ae575b509394505f935083925050505b825181101561172e5760015f8483815181106116ed576116ed612f01565b602002602001015181526020019081526020015f2060040160019054906101000a900460ff1615611726578161172281612f29565b9250505b6001016116cf565b505f84821161173d578161173f565b845b90505f8167ffffffffffffffff81111561175b5761175b612aa8565b604051908082528060200260200182016040528015611784578160200160208202803683370190505b5090505f805b85518110801561179957508382105b15611821575f8682815181106117b1576117b1612f01565b6020026020010151905060015f8281526020019081526020015f2060040160019054906101000a900460ff161561180e57808484815181106117f5576117f5612f01565b60209081029190910101528261180a81612f29565b9350505b508061181981612f29565b91505061178a565b50909450505050505b92915050565b6060806060806060805f600354888a6118499190612f41565b1161185d57611858888a612f41565b611861565b6003545b90505f61186e8a83612f54565b90508067ffffffffffffffff81111561188957611889612aa8565b6040519080825280602002602001820160405280156118b2578160200160208202803683370190505b5097508067ffffffffffffffff8111156118ce576118ce612aa8565b6040519080825280602002602001820160405280156118f7578160200160208202803683370190505b5096508067ffffffffffffffff81111561191357611913612aa8565b60405190808252806020026020018201604052801561194657816020015b60608152602001906001900390816119315790505b5095508067ffffffffffffffff81111561196257611962612aa8565b60405190808252806020026020018201604052801561198b578160200160208202803683370190505b5094508067ffffffffffffffff8111156119a7576119a7612aa8565b6040519080825280602002602001820160405280156119d0578160200160208202803683370190505b5093508067ffffffffffffffff8111156119ec576119ec612aa8565b604051908082528060200260200182016040528015611a15578160200160208202803683370190505b5092505f5b81811015611bda575f611a2d828d612f41565b5f8181526001602052604090208b519192509082908c9085908110611a5457611a54612f01565b602090810291909101015280548a516001600160a01b03909116908b9085908110611a8157611a81612f01565b60200260200101906001600160a01b031690816001600160a01b031681525050806001018054611ab090612ec9565b80601f0160208091040260200160405190810160405280929190818152602001828054611adc90612ec9565b8015611b275780601f10611afe57610100808354040283529160200191611b27565b820191905f5260205f20905b815481529060010190602001808311611b0a57829003601f168201915b5050505050898481518110611b3e57611b3e612f01565b60200260200101819052508060020154888481518110611b6057611b60612f01565b60209081029190910101526004810154875160ff90911690889085908110611b8a57611b8a612f01565b6020026020010190151590811515815250508060040160019054906101000a900460ff16868481518110611bc057611bc0612f01565b911515602092830291909101909101525050600101611a1a565b5050509295509295509295565b5f546001600160a01b03163314611c405760405162461bcd60e51b815260206004820181905260248201527f4f776e61626c653a2063616c6c6572206973206e6f7420746865206f776e6572604482015260640161024b565b5f54600160a01b900460ff1615611c8e5760405162461bcd60e51b815260206004820152601260248201527110dbdb9d1c9858dd081a5cc81c185d5cd95960721b604482015260640161024b565b5f8281526001602052604090206004810154610100900460ff16611cf45760405162461bcd60e51b815260206004820152601960248201527f50726564696374696f6e20646f6573206e6f7420657869737400000000000000604482015260640161024b565b600481015460ff1615611d495760405162461bcd60e51b815260206004820152601b60248201527f50726564696374696f6e20616c72656164792072657665616c65640000000000604482015260640161024b565b8060020154421015611d9d5760405162461bcd60e51b815260206004820152601e60248201527f546172676574206461746520686173206e6f7420706173736564207965740000604482015260640161024b565b60048101805460ff191660011790555f611db784846126b6565b6040805160808101825284546001600160a01b03908116825260208083018881528385018a8152606085018781525f8c81526006909452958320945185546001600160a01b0319169416939093178455516001808501919091559151600284015592516003909201919091556007805491820181559091527fa66cc928b5edb82af9bd49922954155ab7b0942694bea4ce44661d9a8736c688018590559050611e5e6126ef565b815460408051858152602081018490526001600160a01b039092169186917f72fe6023edc767b385ef75dfdbf1bdb3a1d01f01d58bb409ff77308a197277b0910160405180910390a350505050565b5f54600160a01b900460ff1615611efb5760405162461bcd60e51b815260206004820152601260248201527110dbdb9d1c9858dd081a5cc81c185d5cd95960721b604482015260640161024b565b5f8851118015611f0d57506064885111155b611f635760405162461bcd60e51b815260206004820152602160248201527f4c6f636174696f6e206d75737420626520312d313030206368617261637465726044820152607360f81b606482015260840161024b565b428711611fbc5760405162461bcd60e51b815260206004820152602160248201527f5461726765742064617465206d75737420626520696e207468652066757475726044820152606560f81b606482015260840161024b565b611fca426301e13380612f41565b87111561203f5760405162461bcd60e51b815260206004820152603460248201527f54617267657420646174652063616e6e6f74206265206d6f7265207468616e2060448201527f31207965617220696e2074686520667574757265000000000000000000000000606482015260840161024b565b600380545f918261204f83612f29565b9190505590505f6120958888888080601f0160208091040260200160405190810160405280939291908181526020018383808284375f920191909152506127ec92505050565b90505f6120d78686868080601f0160208091040260200160405190810160405280939291908181526020018383808284375f920191909152506127ec92505050565b90506120e2826127f9565b506120ed8233612808565b506120f7816127f9565b506121028133612808565b506040805160c08101825233815260208082018e81528284018e90524260608401525f60808401819052600160a085018190528882529283905293909320825181546001600160a01b0319166001600160a01b0390911617815592519192919082019061216f9082612fe9565b506040828101516002808401919091556060840151600384015560808401516004938401805460a09096015115156101000261ff00199215159290921661ffff1990961695909517179093558051808201825285815260208082018681525f8981529582528386209251835551600192830155338086529381528285208054928301815585528085209091018790559183526005909152812080549161221483612f29565b9190505550336001600160a01b0316837f758d1306c10ba6f65ce85eb8ffd9db82887c1e8bdc5e7d0522cebacf218cb1dd8d8d42604051612257939291906130a4565b60405180910390a35050505050505050505050565b6001600160a01b0381165f908152600460209081526040918290208054835181840281018401909452808452606093928301828280156122c957602002820191905f5260205f20905b8154815260200190600101908083116122b5575b50505050509050919050565b5f546001600160a01b0316331461232e5760405162461bcd60e51b815260206004820181905260248201527f4f776e61626c653a2063616c6c6572206973206e6f7420746865206f776e6572604482015260640161024b565b5f54600160a01b900460ff166123865760405162461bcd60e51b815260206004820152601660248201527f436f6e7472616374206973206e6f742070617573656400000000000000000000604482015260640161024b565b5f80546040516001600160a01b03909116914780156108fc02929091818181858888f193505050501580156123bd573d5f5f3e3d5ffd5b50565b5f546001600160a01b031633146124195760405162461bcd60e51b815260206004820181905260248201527f4f776e61626c653a2063616c6c6572206973206e6f7420746865206f776e6572604482015260640161024b565b6001600160a01b03811661246f5760405162461bcd60e51b815260206004820181905260248201527f4e6577206f776e65722063616e6e6f74206265207a65726f2061646472657373604482015260640161024b565b5f80546040516001600160a01b03808516939216917f8be0079c531659141344cd1fd0a4f28419497f9722a3daafe3b4186f6b6457e091a35f80546001600160a01b0319166001600160a01b0392909216919091179055565b5f818152600160208190526040822080546002820154600383015460048401549484018054606096889687968796879692956001600160a01b0390921694919390929160ff8083169261010090041690859061252390612ec9565b80601f016020809104026020016040519081016040528092919081815260200182805461254f90612ec9565b801561259a5780601f106125715761010080835404028352916020019161259a565b820191905f5260205f20905b81548152906001019060200180831161257d57829003601f168201915b505050505094509650965096509650965096505091939550919395565b815181515f918491849110156125d1575f9250505061182a565b5f5b815183516125e19190612f54565b81116126ab5760015f5b83518110156126845783818151811061260657612606612f01565b01602001517fff0000000000000000000000000000000000000000000000000000000000000016856126388386612f41565b8151811061264857612648612f01565b01602001517fff00000000000000000000000000000000000000000000000000000000000000161461267c575f9150612684565b6001016125eb565b50801561269857600194505050505061182a565b50806126a381612f29565b9150506125d3565b505f95945050505050565b5f8281526002602052604081206113886107d0836126d48284612f41565b90506127108111156126e557506127105b9695505050505050565b600754600181116126fd5750565b60015b818110156127e8575f6007828154811061271c5761271c612f01565b5f918252602090912001549050815b5f8111801561276457506127646007612745600184612f54565b8154811061275557612755612f01565b905f5260205f2001548361281a565b156127bf576007612776600183612f54565b8154811061278657612786612f01565b905f5260205f200154600782815481106127a2576127a2612f01565b5f91825260209091200155806127b7816130c8565b91505061272b565b81600782815481106127d3576127d3612f01565b5f918252602090912001555050600101612700565b5050565b5f610d2583836004612872565b5f6128048230612992565b5090565b5f6128138383612992565b5090919050565b5f82815260066020526040808220838352908220600380820154908301541461284e5760039081015491015410905061182a565b5050505f918252600160205260408083209183529091206003908101549101541190565b7f9e7b61f58c47dc699ac88507c4f5bb9f121c03808c5676a8078fe583e46497015460405163196d0b9b60e01b81525f917f9e7b61f58c47dc699ac88507c4f5bb9f121c03808c5676a8078fe583e4649700916001600160a01b039091169063196d0b9b906128eb9088903390899089906004016130dd565b6020604051808303815f875af1158015612907573d5f5f3e3d5ffd5b505050506040513d601f19601f8201168201806040525081019061292b9190613131565b8154604051630f8e573b60e21b8152600481018390523360248201529193506001600160a01b031690633e395cec906044015f604051808303815f87803b158015612974575f5ffd5b505af1158015612986573d5f5f3e3d5ffd5b50505050509392505050565b5f7f9e7b61f58c47dc699ac88507c4f5bb9f121c03808c5676a8078fe583e46497008054604051635ca4b5b160e11b8152600481018690526001600160a01b03858116602483015292935091169063b9496b62906044015f604051808303815f87803b158015612a00575f5ffd5b505af1158015612a12573d5f5f3e3d5ffd5b50505050505050565b5f60208284031215612a2b575f5ffd5b5035919050565b5f81518084528060208401602086015e5f602082860101526020601f19601f83011685010191505092915050565b6001600160a01b038716815260c060208201525f612a8160c0830188612a32565b60408301969096525060608101939093529015156080830152151560a09091015292915050565b634e487b7160e01b5f52604160045260245ffd5b5f82601f830112612acb575f5ffd5b813567ffffffffffffffff811115612ae557612ae5612aa8565b604051601f8201601f19908116603f0116810167ffffffffffffffff81118282101715612b1457612b14612aa8565b604052818152838201602001851015612b2b575f5ffd5b816020850160208301375f918101602001919091529392505050565b5f5f60408385031215612b58575f5ffd5b823567ffffffffffffffff811115612b6e575f5ffd5b612b7a85828601612abc565b95602094909401359450505050565b5f8151808452602084019350602083015f5b82811015612bb9578151865260209586019590910190600101612b9b565b5093949350505050565b5f8151808452602084019350602083015f5b82811015612bb95781516001600160a01b0316865260209586019590910190600101612bd5565b5f82825180855260208501945060208160051b830101602085015f5b83811015612c4a57601f19858403018852612c34838351612a32565b6020988901989093509190910190600101612c18565b50909695505050505050565b606081525f612c686060830186612b89565b8281036020840152612c7a8186612bc3565b905082810360408401526126e58185612bfc565b602081525f610d256020830184612b89565b5f5f60408385031215612cb1575f5ffd5b50508035926020909101359150565b80356001600160a01b0381168114612cd6575f5ffd5b919050565b5f60208284031215612ceb575f5ffd5b610d2582612cc0565b5f5f60408385031215612d05575f5ffd5b612d0e83612cc0565b946020939093013593505050565b5f8151808452602084019350602083015f5b82811015612bb95781511515865260209586019590910190600101612d2e565b60c081525f612d6060c0830189612b89565b8281036020840152612d728189612bc3565b90508281036040840152612d868188612bfc565b90508281036060840152612d9a8187612b89565b90508281036080840152612dae8186612d1c565b905082810360a0840152612dc28185612d1c565b9998505050505050505050565b5f5f83601f840112612ddf575f5ffd5b50813567ffffffffffffffff811115612df6575f5ffd5b602083019150836020828501011115612e0d575f5ffd5b9250929050565b5f5f5f5f5f5f5f5f60c0898b031215612e2b575f5ffd5b883567ffffffffffffffff811115612e41575f5ffd5b612e4d8b828c01612abc565b9850506020890135965060408901359550606089013567ffffffffffffffff811115612e77575f5ffd5b612e838b828c01612dcf565b9096509450506080890135925060a089013567ffffffffffffffff811115612ea9575f5ffd5b612eb58b828c01612dcf565b999c989b5096995094979396929594505050565b600181811c90821680612edd57607f821691505b602082108103612efb57634e487b7160e01b5f52602260045260245ffd5b50919050565b634e487b7160e01b5f52603260045260245ffd5b634e487b7160e01b5f52601160045260245ffd5b5f60018201612f3a57612f3a612f15565b5060010190565b8082018082111561182a5761182a612f15565b8181038181111561182a5761182a612f15565b808202811582820484141761182a5761182a612f15565b5f82612f9857634e487b7160e01b5f52601260045260245ffd5b500490565b601f821115612fe457805f5260205f20601f840160051c81016020851015612fc25750805b601f840160051c820191505b81811015612fe1575f8155600101612fce565b50505b505050565b815167ffffffffffffffff81111561300357613003612aa8565b613017816130118454612ec9565b84612f9d565b6020601f821160018114613049575f83156130325750848201515b5f19600385901b1c1916600184901b178455612fe1565b5f84815260208120601f198516915b828110156130785787850151825560209485019460019092019101613058565b508482101561309557868401515f19600387901b60f8161c191681555b50505050600190811b01905550565b606081525f6130b66060830186612a32565b60208301949094525060400152919050565b5f816130d6576130d6612f15565b505f190190565b8481526001600160a01b0384166020820152608060408201525f6131046080830185612a32565b90506054831061312257634e487b7160e01b5f52602160045260245ffd5b82606083015295945050505050565b5f60208284031215613141575f5ffd5b505191905056fea164736f6c634300081b000a",
  "devdoc": {
    "custom:security-contact": "security@crystal-predict-vault.com",
    "details": "This contract uses Zama's FHEVM technology to perform computations on encrypted data.      Each prediction contains up to 2 encrypted values: predicted temperature and confidence level.",
    "kind": "dev",
    "methods": {
      "getEncryptedConfidence(uint256)": {
        "params": {
          "predictionId": "Prediction ID"
        }
      },
      "getEncryptedTemperature(uint256)": {
        "params": {
          "predictionId": "Prediction ID"
        }
      },
      "getLeaderboardEntry(uint256)": {
        "params": {
          "predictionId": "Prediction ID"
        }
      },
      "getPrediction(uint256)": {
        "params": {
          "predictionId": "Prediction ID"
        }
      },
      "getPredictionPercentile(uint256)": {
        "params": {
          "predictionId": "Prediction ID to calculate percentile for"
        }
      },
      "getPredictionRanking(uint256)": {
        "params": {
          "predictionId": "Prediction ID to find ranking for"
        }
      },
      "getPredictions(uint256,uint256)": {
        "params": {
          "limit": "Maximum number of predictions to return",
          "offset": "Starting index"
        }
      },
      "getTopPredictions(uint256)": {
        "params": {
          "limit": "Maximum number of predictions to return"
        }
      },
      "getUserPredictionCount(address)": {
        "params": {
          "user": "User address"
        }
      },
      "getUserPredictions(address)": {
        "params": {
          "user": "User address"
        }
      },
      "getUserStats(address)": {
        "params": {
          "user": "User address"
        }
      },
      "revealPrediction(uint256,int256)": {
        "details": "This function should be called by owner after target date has passed",
        "params": {
          "actualTemperature": "Actual temperature in Celsius (multiplied by 10, e.g., 25.5C = 255)",
          "predictionId": "Prediction ID"
        }
      },
      "searchPredictionsByLocation(string,uint256)": {
        "params": {
          "limit": "Maximum number of results",
          "searchLocation": "Location substring to search for"
        }
      },
      "submitPrediction(string,uint256,bytes32,bytes,bytes32,bytes)": {
        "details": "Allows users to submit temperature predictions with encrypted temperature and confidence",
        "params": {
          "confidenceProof": "ZK proof for encrypted confidence",
          "encryptedConfidence": "Encrypted confidence level (0-1000, where 1000 = 100%)",
          "encryptedTemperature": "Encrypted temperature in Celsius (multiplied by 10, e.g., 25.5C = 255)",
          "location": "Location for the weather prediction",
          "targetDate": "Target date for the prediction (Unix timestamp)",
          "temperatureProof": "ZK proof for encrypted temperature"
        }
      },
      "updateLeaderboardAccuracy(uint256,uint256)": {
        "params": {
          "accuracy": "Accuracy score (0-10000, where 10000 = 100.00%)",
          "predictionId": "Prediction ID"
        }
      }
    },
    "title": "PrivateWeatherGuess - Encrypted Weather Temperature Prediction System",
    "version": 1
  },
  "userdoc": {
    "kind": "user",
    "methods": {
      "emergencyWithdraw()": {
        "notice": "Emergency withdraw function for owner (only in paused state)"
      },
      "getContractBalance()": {
        "notice": "Get contract balance"
      },
      "getContractStatus()": {
        "notice": "Get contract status information"
      },
      "getEncryptedConfidence(uint256)": {
        "notice": "Get encrypted confidence (only accessible by prediction owner or after reveal)"
      },
      "getEncryptedTemperature(uint256)": {
        "notice": "Get encrypted temperature (only accessible by prediction owner or after reveal)"
      },
      "getGlobalStats()": {
        "notice": "Get global prediction statistics"
      },
      "getLeaderboardCount()": {
        "notice": "Get leaderboard count"
      },
      "getLeaderboardEntry(uint256)": {
        "notice": "Get leaderboard entry"
      },
      "getPrediction(uint256)": {
        "notice": "Get prediction basic information"
      },
      "getPredictionCount()": {
        "notice": "Get total prediction count"
      },
      "getPredictionPercentile(uint256)": {
        "notice": "Get accuracy percentile for a prediction"
      },
      "getPredictionRanking(uint256)": {
        "notice": "Get prediction ranking position"
      },
      "getPredictions(uint256,uint256)": {
        "notice": "Get paginated prediction list"
      },
      "getTopPredictions(uint256)": {
        "notice": "Get top predictions by accuracy"
      },
      "getUserActivePredictions(address,uint256)": {
        "notice": "Get user's active predictions"
      },
      "getUserPredictionCount(address)": {
        "notice": "Get user's prediction count"
      },
      "getUserPredictions(address)": {
        "notice": "Get user's prediction IDs"
      },
      "getUserStats(address)": {
        "notice": "Get prediction statistics for a user"
      },
      "pause()": {
        "notice": "Pause contract operations (only owner)"
      },
      "renounceOwnership()": {
        "notice": "Renounce ownership (transfer to zero address)"
      },
      "revealPrediction(uint256,int256)": {
        "notice": "Reveal prediction and update leaderboard (only owner can call after target date)"
      },
      "searchPredictionsByLocation(string,uint256)": {
        "notice": "Search predictions by location (case-insensitive partial match)"
      },
      "submitPrediction(string,uint256,bytes32,bytes,bytes32,bytes)": {
        "notice": "Submit new encrypted weather prediction"
      },
      "transferOwnership(address)": {
        "notice": "Transfer ownership to new owner (only owner)"
      },
      "unpause()": {
        "notice": "Unpause contract operations (only owner)"
      },
      "updateLeaderboardAccuracy(uint256,uint256)": {
        "notice": "Update leaderboard accuracy after decryption (only owner)"
      }
    },
    "notice": "A fully homomorphic encryption (FHE) based weather prediction system that allows users to submit         encrypted temperature predictions. All predictions are stored encrypted and can only be decrypted         after the prediction period ends for ranking purposes.",
    "version": 1
  },
  "storageLayout": {
    "storage": [
      {
        "astId": 39145,
        "contract": "contracts/PrivateWeatherGuess.sol:PrivateWeatherGuess",
        "label": "owner",
        "offset": 0,
        "slot": "0",
        "type": "t_address"
      },
      {
        "astId": 39147,
        "contract": "contracts/PrivateWeatherGuess.sol:PrivateWeatherGuess",
        "label": "paused",
        "offset": 20,
        "slot": "0",
        "type": "t_bool"
      },
      {
        "astId": 39172,
        "contract": "contracts/PrivateWeatherGuess.sol:PrivateWeatherGuess",
        "label": "predictions",
        "offset": 0,
        "slot": "1",
        "type": "t_mapping(t_uint256,t_struct(Prediction)39160_storage)"
      },
      {
        "astId": 39177,
        "contract": "contracts/PrivateWeatherGuess.sol:PrivateWeatherGuess",
        "label": "_encryptedData",
        "offset": 0,
        "slot": "2",
        "type": "t_mapping(t_uint256,t_struct(EncryptedPredictionData)39167_storage)"
      },
      {
        "astId": 39179,
        "contract": "contracts/PrivateWeatherGuess.sol:PrivateWeatherGuess",
        "label": "predictionCount",
        "offset": 0,
        "slot": "3",
        "type": "t_uint256"
      },
      {
        "astId": 39184,
        "contract": "contracts/PrivateWeatherGuess.sol:PrivateWeatherGuess",
        "label": "_userPredictions",
        "offset": 0,
        "slot": "4",
        "type": "t_mapping(t_address,t_array(t_uint256)dyn_storage)"
      },
      {
        "astId": 39188,
        "contract": "contracts/PrivateWeatherGuess.sol:PrivateWeatherGuess",
        "label": "_userPredictionCount",
        "offset": 0,
        "slot": "5",
        "type": "t_mapping(t_address,t_uint256)"
      },
      {
        "astId": 39202,
        "contract": "contracts/PrivateWeatherGuess.sol:PrivateWeatherGuess",
        "label": "leaderboard",
        "offset": 0,
        "slot": "6",
        "type": "t_mapping(t_uint256,t_struct(LeaderboardEntry)39197_storage)"
      },
      {
        "astId": 39205,
        "contract": "contracts/PrivateWeatherGuess.sol:PrivateWeatherGuess",
        "label": "leaderboardIds",
        "offset": 0,
        "slot": "7",
        "type": "t_array(t_uint256)dyn_storage"
      }
    ],
    "types": {
      "t_address": {
        "encoding": "inplace",
        "label": "address",
        "numberOfBytes": "20"
      },
      "t_array(t_uint256)dyn_storage": {
        "base": "t_uint256",
        "encoding": "dynamic_array",
        "label": "uint256[]",
        "numberOfBytes": "32"
      },
      "t_bool": {
        "encoding": "inplace",
        "label": "bool",
        "numberOfBytes": "1"
      },
      "t_int256": {
        "encoding": "inplace",
        "label": "int256",
        "numberOfBytes": "32"
      },
      "t_mapping(t_address,t_array(t_uint256)dyn_storage)": {
        "encoding": "mapping",
        "key": "t_address",
        "label": "mapping(address => uint256[])",
        "numberOfBytes": "32",
        "value": "t_array(t_uint256)dyn_storage"
      },
      "t_mapping(t_address,t_uint256)": {
        "encoding": "mapping",
        "key": "t_address",
        "label": "mapping(address => uint256)",
        "numberOfBytes": "32",
        "value": "t_uint256"
      },
      "t_mapping(t_uint256,t_struct(EncryptedPredictionData)39167_storage)": {
        "encoding": "mapping",
        "key": "t_uint256",
        "label": "mapping(uint256 => struct PrivateWeatherGuess.EncryptedPredictionData)",
        "numberOfBytes": "32",
        "value": "t_struct(EncryptedPredictionData)39167_storage"
      },
      "t_mapping(t_uint256,t_struct(LeaderboardEntry)39197_storage)": {
        "encoding": "mapping",
        "key": "t_uint256",
        "label": "mapping(uint256 => struct PrivateWeatherGuess.LeaderboardEntry)",
        "numberOfBytes": "32",
        "value": "t_struct(LeaderboardEntry)39197_storage"
      },
      "t_mapping(t_uint256,t_struct(Prediction)39160_storage)": {
        "encoding": "mapping",
        "key": "t_uint256",
        "label": "mapping(uint256 => struct PrivateWeatherGuess.Prediction)",
        "numberOfBytes": "32",
        "value": "t_struct(Prediction)39160_storage"
      },
      "t_string_storage": {
        "encoding": "bytes",
        "label": "string",
        "numberOfBytes": "32"
      },
      "t_struct(EncryptedPredictionData)39167_storage": {
        "encoding": "inplace",
        "label": "struct PrivateWeatherGuess.EncryptedPredictionData",
        "members": [
          {
            "astId": 39163,
            "contract": "contracts/PrivateWeatherGuess.sol:PrivateWeatherGuess",
            "label": "encryptedTemperature",
            "offset": 0,
            "slot": "0",
            "type": "t_userDefinedValueType(euint32)40945"
          },
          {
            "astId": 39166,
            "contract": "contracts/PrivateWeatherGuess.sol:PrivateWeatherGuess",
            "label": "encryptedConfidence",
            "offset": 0,
            "slot": "1",
            "type": "t_userDefinedValueType(euint32)40945"
          }
        ],
        "numberOfBytes": "64"
      },
      "t_struct(LeaderboardEntry)39197_storage": {
        "encoding": "inplace",
        "label": "struct PrivateWeatherGuess.LeaderboardEntry",
        "members": [
          {
            "astId": 39190,
            "contract": "contracts/PrivateWeatherGuess.sol:PrivateWeatherGuess",
            "label": "predictor",
            "offset": 0,
            "slot": "0",
            "type": "t_address"
          },
          {
            "astId": 39192,
            "contract": "contracts/PrivateWeatherGuess.sol:PrivateWeatherGuess",
            "label": "actualTemperature",
            "offset": 0,
            "slot": "1",
            "type": "t_int256"
          },
          {
            "astId": 39194,
            "contract": "contracts/PrivateWeatherGuess.sol:PrivateWeatherGuess",
            "label": "predictionId",
            "offset": 0,
            "slot": "2",
            "type": "t_uint256"
          },
          {
            "astId": 39196,
            "contract": "contracts/PrivateWeatherGuess.sol:PrivateWeatherGuess",
            "label": "accuracy",
            "offset": 0,
            "slot": "3",
            "type": "t_uint256"
          }
        ],
        "numberOfBytes": "128"
      },
      "t_struct(Prediction)39160_storage": {
        "encoding": "inplace",
        "label": "struct PrivateWeatherGuess.Prediction",
        "members": [
          {
            "astId": 39149,
            "contract": "contracts/PrivateWeatherGuess.sol:PrivateWeatherGuess",
            "label": "predictor",
            "offset": 0,
            "slot": "0",
            "type": "t_address"
          },
          {
            "astId": 39151,
            "contract": "contracts/PrivateWeatherGuess.sol:PrivateWeatherGuess",
            "label": "location",
            "offset": 0,
            "slot": "1",
            "type": "t_string_storage"
          },
          {
            "astId": 39153,
            "contract": "contracts/PrivateWeatherGuess.sol:PrivateWeatherGuess",
            "label": "targetDate",
            "offset": 0,
            "slot": "2",
            "type": "t_uint256"
          },
          {
            "astId": 39155,
            "contract": "contracts/PrivateWeatherGuess.sol:PrivateWeatherGuess",
            "label": "submissionTime",
            "offset": 0,
            "slot": "3",
            "type": "t_uint256"
          },
          {
            "astId": 39157,
            "contract": "contracts/PrivateWeatherGuess.sol:PrivateWeatherGuess",
            "label": "isRevealed",
            "offset": 0,
            "slot": "4",
            "type": "t_bool"
          },
          {
            "astId": 39159,
            "contract": "contracts/PrivateWeatherGuess.sol:PrivateWeatherGuess",
            "label": "isActive",
            "offset": 1,
            "slot": "4",
            "type": "t_bool"
          }
        ],
        "numberOfBytes": "160"
      },
      "t_uint256": {
        "encoding": "inplace",
        "label": "uint256",
        "numberOfBytes": "32"
      },
      "t_userDefinedValueType(euint32)40945": {
        "encoding": "inplace",
        "label": "euint32",
        "numberOfBytes": "32"
      }
    }
  }
}